:020000040800F2
:1000000000000220011400089D090008A109000851
:10001000A5090008A9090008AD09000800000000B2
:10002000000000000000000000000000B10900080E
:10003000B509000800000000B9090008BD09000862
:1000400051140008511400085114000851140008FC
:1000500051140008511400085114000851140008EC
:1000600051140008511400085114000851140008DC
:1000700051140008511400085114000851140008CC
:1000800051140008511400085114000851140008BC
:1000900051140008511400085114000851140008AC
:1000A000511400085114000851140008511400089C
:1000B000511400085114000851140008511400088C
:1000C000511400085114000851140008511400087C
:1000D000511400085114000851140008511400086C
:1000E000511400085114000851140008511400085C
:1000F000511400085114000851140008511400084C
:10010000511400085114000851140008511400083B
:10011000511400085114000851140008511400082B
:10012000511400085114000851140008511400081B
:1001300051140008000000000000000051140008E5
:1001400051140008511400085114000851140008FB
:1001500051140008511400085114000851140008EB
:1001600051140008511400085114000851140008DB
:100170005114000851140008511400080000000038
:100180000000000051140008000000000000000002
:100190005114000800000000000000005114000885
:1001A00000000000000000000000000051140008E2
:1001B000511400085114000851140008511400088B
:0401C00051140008CE
:1001C400044B05481B1A062B02D9044B03B11847EC
:1001D400704700BF0F0000200C000020000000004A
:1001E40005490648091A891001EBD171491002D05A
:1001F400034B03B1184770470C0000200C0000208B
:100204000000000010B5064C237843B9FFF7D8FF6F
:10021400044B13B10448AFF300800123237010BDD5
:100224000C00002000000000A014000808B5084BD2
:100234001BB108480849AFF300800848036813B9A4
:10024400BDE80840CCE7064B002BF9D09847F7E708
:1002540000000000A0140008100000200C00002082
:100264000000000053B94AB9002908BF00281CBF88
:100274004FF0FF314FF0FF3000F03CB882B0EC4655
:100284002DE9005000F01EF8DDF804E002B00CBCCB
:10029400704700BF2DE9F041069C154606460F46FF
:1002A400984600F029F805FB01F300FB0838A5FB8C
:1002B4000023B21A434467EB0303C4E90023BDE8F7
:1002C400F08100BF2DE9F041069C904606460F469A
:1002D4001D4600F05FF900FB05F5A0FB082308FBB1
:1002E4000155B21A2B4467EB0303C4E90023BDE8AC
:1002F400F08100BF704700BF00292DE9F043C0F230
:10030400A6800026002BC0F29C80884694469E4618
:10031400154604460F46002B3DD18A4259D9B2FAFC
:1003240082F33BB1C3F120029F4020FA02F29D40C8
:1003340017439C40290C220CB7FBF1FEA8B201FB29
:100344001E7742EA074700FB0EF3BB420AD97F1926
:100354000EF1FF3280F00581BB4240F20281AEF122
:10036400020E2F44FF1AA4B2B7FBF1F301FB13777B
:1003740044EA074700FB03F0B84208D97F1903F1A8
:10038400FF3280F0F080B84240F2ED80023B43EA55
:100394000E43002203E08B420FD900221346341C83
:1003A40018BF012460424FF0000565EB4501584039
:1003B400514000196941BDE8F083B3FA83F2002A81
:1003C40040F086808B4202D3844500F2DB80012317
:1003D400E5E712B90123B3FBF2F5B5FA85F000287D
:1003E4003BD1781B4FEA154E1FFA85FC0122B0FB66
:1003F400FEF8210C0EFB180741EA07470CFB08F333
:10040400BB4207D97F1908F1FF3102D2BB4200F287
:10041400BD808846FF1AA4B2B7FBFEF30EFB137728
:1004240044EA07470CFB03FCBC4507D97F1903F1D9
:10043400FF3102D2BC4500F2A7800B4643EA0843D1
:10044400ADE752426FEA060663EB43035DE74042C1
:1004540061EB41014FF0FF3654E7C0F1200224FA6A
:1004640002F107FA00F385404FEA154ED7401943CD
:10047400B7FBFEF20B0C0EFB12771FFA85FC43EA66
:1004840007430CFB02F79F4204FA00F407D95B19F7
:1004940002F1FF3074D29F4272D9023A2B44DF1B1F
:1004A40089B2B7FBFEF80EFB187341EA03430CFB59
:1004B40008F79F4208D95B1908F1FF315CD29F42CB
:1004C4005AD9A8F102082B44D81B48EA02428EE705
:1004D400C2F120032CFA03F10EFA02FE20FA03F70C
:1004E40041EA0E0E08FA02F028FA03F14FEA1E451B
:1004F4003843B1FBF5F8030C05FB18111FFA8EF70E
:1005040043EA014107FB08F38B420CFA02FC09D9C8
:1005140011EB0E0108F1FF3930D28B422ED9A8F12C
:1005240002087144C91A80B2B1FBF5F305FB13113B
:1005340040EA014107FB03F78F4208D911EB0E0192
:1005440003F1FF3016D28F4214D9023B714443EABF
:100554000843C91BA3FB0C89494509D305D00022D4
:100564001DE79646FEE6134611E794404445F6D24D
:10057400013BF4E70346EAE78846A5E7C846D1E726
:1005840002468CE713460AE7023B57E7A8F1020844
:100594002F443FE72DE9F041002B44D18A42154610
:1005A40004464FD9B2FA82F70E464FB1C7F1200381
:1005B400B94020FA03F602FA07F50E4300FA07F4ED
:1005C4004FEA154E230CB6FBFEF0AFB20EFB1061E2
:1005D40043EA014307FB00F1994209D95B1900F191
:1005E400FF3280F0EC80994240F2E98002382B44DB
:1005F4005A1AA4B2B2FBFEF30EFB132244EA0242DF
:1006040007FB03F7974208D9521903F1FF3180F031
:10061400D880974240F2D580023B43EA004000264E
:100624003146BDE8F0818B4247D8B3FA83F6002EF9
:1006340048D18B4202D3824200F2CD800120314660
:10064400BDE8F08112B90125B5FBF2F5B5FA85F8DC
:10065400B8F1000F77D14A1B4FEA154EAFB201260D
:10066400B2FBFEF0230C0EFB102143EA014107FB11
:1006740000F38B4207D9491900F1FF3202D28B42B1
:1006840000F2BA801046C91AA4B2B1FBFEF30EFB05
:10069400131144EA014407FB03F7A74208D964197C
:1006A40003F1FF3280F08F80A74240F28C80023B3E
:1006B40043EA00403146BDE8F08100263046314629
:1006C400BDE8F081C6F1200422FA04F5B3402B43BF
:1006D40020FA04FC01FA06F721FA04F54FEA134E56
:1006E4004CEA0707B5FBFEF8390C0EFB18551FFA48
:1006F40083FC41EA05450CFB08F1A94202FA06F223
:1007040004D9ED1808F1FF3467D3A0466D1ABFB2BF
:10071400B5FBFEF40EFB145547EA05410CFB04FC43
:100724008C4504D9C91804F1FF355CD32C4644EA3E
:100734000844CCEB0101A4FB0223994248D344D0E2
:10074400204600266CE7C8F1200401FA08F305FAF4
:1007540008F520FA04F7E1404FEA154E1F43B1FBB8
:10076400FEF63A0C0EFB16111FFA85FC42EA014311
:100774000CFB06F29A4200FA08F407D95B1906F159
:10078400FF3137D29A4235D9023E2B449B1ABFB26D
:10079400B3FBFEF00EFB103347EA03430CFB00F1FE
:1007A400994207D95B1900F1FF3221D299421FD92E
:1007B40002382B445A1A40EA0646674650E7104668
:1007C40016E70B4629E7134672E7B0409042B7D2CA
:1007D400601E002624E7304622E7A94295D9A8F1F5
:1007E40002081D4492E78C45A0D9023C19449EE7B7
:1007F4001046DFE70E46C9E70238294443E700BF45
:10080400F0B58BB0002405940694079408940994D9
:1008140000942D4B1A6B42F004021A631A6B02F017
:1008240004020092009A01941A6B42F080021A6347
:100834001A6B02F080020192019A02941A6B42F040
:1008440002021A631A6B02F002020292029A0394E1
:100854001A6B42F001021A631A6B02F0010203924E
:10086400039A04941A6B42F008021A631B6B03F098
:1008740008030493049B154D28460221012200F02D
:10088400CDFC022605960127069707970896284669
:1008940005A900F0E1FB28464FF48071224600F0E0
:1008A400BDFC28464FF40071224600F0B7FC4FF41B
:1008B40040730593069707940896284605A900F007
:1008C400CBFB0BB0F0BD00BF003802400004024077
:1008D40010B594B000240794089409940A940B94D6
:1008E4000C940D940E940F941094119412941394E8
:1008F400029403940494059406940094164B1A6C81
:1009040042F080521A641B6C03F080530093009BE6
:100914000194124A136823F4404343F48043136060
:10092400136803F440430193019B022307930123BB
:100934000A9310230B930D9407A800F099F90F2341
:100944000293039404940594069402A8214600F0AB
:1009540053F814B010BD00BF0038024000700040CE
:1009640008B500F0E5FCFFF7B3FFFFF749FF094CBA
:1009740020464FF4807100F057FC20464FF400717C
:1009840000F052FC0348022100F04EFCC82000F0A5
:10099400FBFCF7E700040240704700BFFEE700BF1E
:1009A400FEE700BFFEE700BFFEE700BF704700BFE1
:1009B400704700BF704700BF08B500F0D3FC08BD06
:1009C40082B0002100910B4B5A6C42F480425A646D
:1009D4005A6C02F480420092009A01911A6C42F01F
:1009E40080521A641B6C03F080530193019B02B084
:1009F400704700BF00380240002800F0978070B5AF
:100A04000D460446504B1B6803F00F038B4208D27B
:100A1400CBB24D4A1370136803F00F038B4240F0BE
:100A24008780236813F0020F17D013F0040F04D04B
:100A3400464A936843F4E0539360236813F0080F25
:100A440004D0424A936843F4604393603F498B68FF
:100A540023F0F002A36813438B60236813F0010FA3
:100A64002FD06268012A05D1384B1B6813F4003F6C
:100A74000ED15FE0931E012B05D8344B1B6813F095
:100A8400007F05D158E0314B1B6813F0020F55D09D
:100A94002E498B6823F0030313438B6000F06EFC34
:100AA400064606E000F06AFC801B41F28833984257
:100AB40046D8264B9B6803F00C036268B3EB820FA5
:100AC400F0D1214B1B6803F00F03AB4207D9EAB204
:100AD4001D4B1A701B6803F00F03AB4232D123681D
:100AE40013F0040F06D019498B6823F4E052E3682D
:100AF40013438B60236813F0080F07D0134A9368DD
:100B040023F46043216943EAC103936000F024F8AD
:100B14000E4B9B68C3F303130D4AD35CD8400D4BB3
:100B24001860002000F0DEFB002070BD012070473B
:100B3400012070BD012070BD012070BD012070BD79
:100B4400032070BD012070BD003C0240003802400B
:100B5400B81400080800002038B5424B9B6803F025
:100B64000C03082B05D00C2B3FD0042B77D03E4828
:100B740038BD3C4B5A6802F03F025B6813F4800FA7
:100B84000AD0384B5B68C3F388133848A3FB0001D1
:100B94000023FFF767FB1FE0324B5B68C3F3881346
:100BA400DC000025690141EAD4616001041B61EBAA
:100BB4000505A90141EA9461A001001B61EB05014F
:100BC400C01841F100018B0243EA9053840220468D
:100BD40019460023FFF746FB224B5B68C3F301432E
:100BE40001335B00B0FBF3F038BD1E4B5A6802F0D2
:100BF4003F025B6813F4800F0AD01A4B5B68C3F39F
:100C040088131A48A3FB00010023FFF72BFB1FE006
:100C1400144B5B68C3F38813DC000025690141EAC7
:100C2400D4616001041B61EB0505A90141EA9461EB
:100C3400A001001B61EB0501C01841F100018B020A
:100C440043EA90538402204619460023FFF70AFB27
:100C5400044B5B68C3F30273B0FBF3F038BD034885
:100C640038BD00BF003802400024F400001BB70068
:100C740070B582B00446036813F0010F65D0A34B2E
:100C84009B6803F00C03042B15D0A04B9B6803F066
:100C94000C03082B04D19D4B5B6813F4800F0AD11D
:100CA4009A4B9B6803F00C030C2B0DD1974B5B689C
:100CB40013F4800F08D0954B1B6813F4003F44D005
:100CC4006368002B41D1A2E16368B3F5803F05D18D
:100CD4008E4A136843F48033136015E0B3F5A02FF4
:100CE40009D18A4B1A6842F480221A601A6842F4C5
:100CF40080321A6008E0854B1A6822F480321A6048
:100D04001A6822F480221A6063687BB100F036FB13
:100D1400054605E000F032FB401B642800F27981AF
:100D24007A4B1B6813F4003FF4D00EE000F026FB6E
:100D3400054605E000F022FB401B642800F26B81AD
:100D4400724B1B6813F4003FF4D1236813F0020FB5
:100D54005BD06E4B9B6813F00C0F15D06B4B9B68EC
:100D640003F00C03082B04D1684B5B6813F4800F69
:100D74000AD0664B9B6803F00C030C2B16D1634B13
:100D84005B6813F4800F11D1604B1B6813F0020FE2
:100D940003D0E368012B40F040815C4A136823F0E0
:100DA400F803216943EAC10313602EE0E368D3B179
:100DB4000122574B1A6000F0E1FA054605E000F005
:100DC400DDFA401B022800F22A81504B1B6813F005
:100DD400020FF4D04D4A136823F0F803216943EA63
:100DE400C103136011E00022494B1A6000F0C6FAF7
:100DF400054605E000F0C2FA401B022800F211810A
:100E0400424B1B6813F0020FF4D1236813F0080F50
:100E140026D0636993B101223E4B1A6000F0AEFA0A
:100E2400054605E000F0AAFA401B022800F2FB8008
:100E3400364B5B6F13F0020FF4D011E00022354BF8
:100E44001A6000F09BFA054605E000F097FA401B93
:100E5400022800F2EA802D4B5B6F13F0020FF4D1ED
:100E6400236813F0040F7DD0284B1B6C13F0805FB4
:100E74000DD100230193254B1A6C42F080521A6461
:100E84001B6C03F080530193019B012500E00025B6
:100E9400214B1B6813F4807F13D11F4A136843F45A
:100EA4008073136000F06AFA064605E000F066FA03
:100EB400801B022800F2BB80174B1B6813F4807F51
:100EC400F4D0A368012B05D1104A136F43F001033A
:100ED400136714E0052B09D10C4B1A6F42F004027E
:100EE4001A671A6F42F001021A6708E0074B1A6F7B
:100EF40022F001021A671A6F22F004021A67A3682B
:100F0400D3B100F03BFA064610E000BF00380240BF
:100F140000004742800E47420070004000F02EFA65
:100F2400801B41F28833984200F28380484B1B6F48
:100F340013F0020FF2D00FE000F020FA064606E0AC
:100F440000F01CFA801B41F28833984273D8404B5E
:100F54001B6F13F0020FF3D125B13D4A136C23F03C
:100F640080531364A369002B67D0394A926802F056
:100F74000C02082A63D0022B36D10022354B1A60AA
:100F840000F0FCF9054604E000F0F8F9401B0228E3
:100F940057D82F4B1B6813F0007FF5D1E269236A01
:100FA4001343626A43EA8213A26A5208013A43EA8B
:100FB4000243E26A43EA0263226B43EA0273244A6D
:100FC40053600122234B1A6000F0D8F9044604E070
:100FD40000F0D4F9001B022835D81D4B1B6813F010
:100FE400007FF5D0002031E000221A4B1A6000F097
:100FF400C5F9044604E000F0C1F9001B022824D816
:10100400134B1B6813F0007FF5D100201EE0012074
:101014001CE003201AE0032018E0012016E003205E
:1010240014E0032012E0032010E003200EE003206C
:101034000CE003200AE0032008E0002006E0012081
:1010440004E0032002E0032000E0032002B070BDAE
:1010540000380240600047422DE9F04182B000238D
:10106400CDE09C4601229A400C681440944240F022
:10107400C5804D68022D01D0122D14D14FEAD3083A
:1010840008F1080850F8287003F0070E4FEA8E0E96
:101094000F2505FA0EF527EA05060D6905FA0EF582
:1010A400354340F8285006684FEA430E032505FAF5
:1010B4000EF5ED4305EA06074E6806F0030606FA48
:1010C4000EF63E4306604E68771E012F03D9112E9B
:1010D40001D0122E12D1866805EA0607CE6806FAF8
:1010E4000EF63E438660476827EA02074E68C6F359
:1010F400001202FA0CF646EA07024260C2682A406D
:101104008D6805FA0EF51543C5604A6812F0805FD4
:1011140074D0002201923D4A556C45F480455564D3
:10112400526C02F480420192019A9A08961C384D3E
:1011340055F8266003F00307BF000F25BD4026EADB
:101144000506344DA84225D005F58065A8421FD078
:1011540005F58065A84219D005F58065A84213D02D
:1011640005F58065A8420DD005F58065A84207D035
:1011740005F58065A84201D106250CE007250AE0A3
:10118400052508E0042506E0032504E0022502E025
:10119400012500E00025BD40354302321C4E46F8CF
:1011A40022501D4A1568E24302EA05064F6817F407
:1011B400803F01D044EA0506174D2E606D6802EAAF
:1011C40005064F6817F4003F01D044EA0506124DA6
:1011D4006E60AD6802EA05064F6817F4801F01D0FF
:1011E40044EA05060C4DAE60ED682A404E6816F4DC
:1011F400001F01D044EA0502074CE26001330F2BC3
:101204007FF62FAF02B0BDE8F08100BF0038024086
:101214000038014000000240003C01400AB18161F5
:1012240070470904816170474369594041617047BF
:1012340000F00700064AD36823F4E0631B041B0C88
:1012440043EA002040F0BF6040F40030D0607047B3
:1012540000ED00E030B4164BDC68C4F30224C4F1A2
:101264000705042D28BF0425231D062B01D9033CA3
:1012740000E00024012303FA05F5013D2940A140C3
:10128400A340013B1A400A43002806DA00F00F008D
:101294001201D2B2074B1A5407E01201D2B200F184
:1012A400604000F5614080F8002330BC704700BF07
:1012B40000ED00E014ED00E00138B0F1807F0AD2C7
:1012C400064B5860F021064A82F8231000209860EB
:1012D40007221A6070470120704700BF10E000E049
:1012E40000ED00E010B504460E4B18784FF47A7305
:1012F400B3FBF0F30C4A1068B0FBF3F0FFF7DCFF2C
:1013040058B90F2C0BD84FF0FF3021460022FFF7BD
:10131400A1FF064B1C60002010BD012010BD012060
:1013240010BD00BF040000200800002000000020C1
:1013340008B50B4B1A6842F400721A601A6842F43A
:1013440080621A601A6842F480721A600320FFF700
:101354006FFF0020FFF7C6FFFFF732FB002008BD38
:10136400003C0240034A1368034909780B441360A4
:10137400704700BF2800002004000020014B1868BB
:10138400704700BF2800002038B50446FFF7F6FF79
:101394000546B4F1FF3F02D0044B1B781C44FFF711
:1013A400EDFF401B8442FAD838BD00BF0400002082
:1013B4000F49D1F8883043F47003C1F888300D4BDD
:1013C4001A6842F001021A60002098601A6822F03C
:1013D400847222F480321A60074A5A601A6822F42E
:1013E40080221A60D8604FF000638B60704700BFA2
:1013F40000ED00E00038024010300024DFF834D063
:10140400002103E00C4B5B58435004310B480C4B58
:1014140042189A42F6D30B4A02E0002342F8043BF6
:10142400094B9A42F9D3FFF7C3FF00F011F8FFF715
:1014340097FA704700000220D8140008000000202A
:101444000C0000200C0000202C000020FEE700000F
:1014540070B50E4B0E4CE41AA41000251E46A5428E
:1014640004D056F8253098470135F8E700F016F80F
:10147400084C094BE41AA41000251E46A54204D0CA
:1014840056F8253098470135F8E770BDD0140008A8
:10149400D0140008D4140008D0140008F8B500BF14
:1014A400F8BC08BC9E467047F8B500BFF8BC08BC41
:0414B4009E46704799
:1014B80000000000000000000102030406070809FC
:0814C80034EEFF7F010000007B
:0414D00031020008DD
:0414D4000902000801
:0C14D80010000000010000000024F400DF
:0400000508001401DA
:00000001FF
